{
  "contractName": "BonusToken",
  "abi": [
    {
      "inputs": [],
      "stateMutability": "nonpayable",
      "type": "constructor"
    },
    {
      "anonymous": false,
      "inputs": [
        {
          "indexed": true,
          "internalType": "address",
          "name": "owner",
          "type": "address"
        },
        {
          "indexed": true,
          "internalType": "address",
          "name": "spender",
          "type": "address"
        },
        {
          "indexed": false,
          "internalType": "uint256",
          "name": "value",
          "type": "uint256"
        }
      ],
      "name": "Approval",
      "type": "event"
    },
    {
      "anonymous": false,
      "inputs": [
        {
          "indexed": true,
          "internalType": "address",
          "name": "from",
          "type": "address"
        },
        {
          "indexed": true,
          "internalType": "address",
          "name": "to",
          "type": "address"
        },
        {
          "indexed": false,
          "internalType": "uint256",
          "name": "value",
          "type": "uint256"
        }
      ],
      "name": "Transfer",
      "type": "event"
    },
    {
      "inputs": [],
      "name": "admin",
      "outputs": [
        {
          "internalType": "address",
          "name": "",
          "type": "address"
        }
      ],
      "stateMutability": "view",
      "type": "function"
    },
    {
      "inputs": [
        {
          "internalType": "address",
          "name": "owner",
          "type": "address"
        },
        {
          "internalType": "address",
          "name": "spender",
          "type": "address"
        }
      ],
      "name": "allowance",
      "outputs": [
        {
          "internalType": "uint256",
          "name": "",
          "type": "uint256"
        }
      ],
      "stateMutability": "view",
      "type": "function"
    },
    {
      "inputs": [
        {
          "internalType": "address",
          "name": "spender",
          "type": "address"
        },
        {
          "internalType": "uint256",
          "name": "amount",
          "type": "uint256"
        }
      ],
      "name": "approve",
      "outputs": [
        {
          "internalType": "bool",
          "name": "",
          "type": "bool"
        }
      ],
      "stateMutability": "nonpayable",
      "type": "function"
    },
    {
      "inputs": [
        {
          "internalType": "address",
          "name": "account",
          "type": "address"
        }
      ],
      "name": "balanceOf",
      "outputs": [
        {
          "internalType": "uint256",
          "name": "",
          "type": "uint256"
        }
      ],
      "stateMutability": "view",
      "type": "function"
    },
    {
      "inputs": [],
      "name": "decimals",
      "outputs": [
        {
          "internalType": "uint8",
          "name": "",
          "type": "uint8"
        }
      ],
      "stateMutability": "view",
      "type": "function"
    },
    {
      "inputs": [
        {
          "internalType": "address",
          "name": "spender",
          "type": "address"
        },
        {
          "internalType": "uint256",
          "name": "subtractedValue",
          "type": "uint256"
        }
      ],
      "name": "decreaseAllowance",
      "outputs": [
        {
          "internalType": "bool",
          "name": "",
          "type": "bool"
        }
      ],
      "stateMutability": "nonpayable",
      "type": "function"
    },
    {
      "inputs": [
        {
          "internalType": "address",
          "name": "spender",
          "type": "address"
        },
        {
          "internalType": "uint256",
          "name": "addedValue",
          "type": "uint256"
        }
      ],
      "name": "increaseAllowance",
      "outputs": [
        {
          "internalType": "bool",
          "name": "",
          "type": "bool"
        }
      ],
      "stateMutability": "nonpayable",
      "type": "function"
    },
    {
      "inputs": [],
      "name": "liquidator",
      "outputs": [
        {
          "internalType": "address",
          "name": "",
          "type": "address"
        }
      ],
      "stateMutability": "view",
      "type": "function"
    },
    {
      "inputs": [],
      "name": "name",
      "outputs": [
        {
          "internalType": "string",
          "name": "",
          "type": "string"
        }
      ],
      "stateMutability": "view",
      "type": "function"
    },
    {
      "inputs": [],
      "name": "symbol",
      "outputs": [
        {
          "internalType": "string",
          "name": "",
          "type": "string"
        }
      ],
      "stateMutability": "view",
      "type": "function"
    },
    {
      "inputs": [],
      "name": "totalSupply",
      "outputs": [
        {
          "internalType": "uint256",
          "name": "",
          "type": "uint256"
        }
      ],
      "stateMutability": "view",
      "type": "function"
    },
    {
      "inputs": [
        {
          "internalType": "address",
          "name": "recipient",
          "type": "address"
        },
        {
          "internalType": "uint256",
          "name": "amount",
          "type": "uint256"
        }
      ],
      "name": "transfer",
      "outputs": [
        {
          "internalType": "bool",
          "name": "",
          "type": "bool"
        }
      ],
      "stateMutability": "nonpayable",
      "type": "function"
    },
    {
      "inputs": [
        {
          "internalType": "address",
          "name": "sender",
          "type": "address"
        },
        {
          "internalType": "address",
          "name": "recipient",
          "type": "address"
        },
        {
          "internalType": "uint256",
          "name": "amount",
          "type": "uint256"
        }
      ],
      "name": "transferFrom",
      "outputs": [
        {
          "internalType": "bool",
          "name": "",
          "type": "bool"
        }
      ],
      "stateMutability": "nonpayable",
      "type": "function"
    },
    {
      "inputs": [
        {
          "internalType": "address",
          "name": "_liquidator",
          "type": "address"
        }
      ],
      "name": "setLiquidator",
      "outputs": [],
      "stateMutability": "nonpayable",
      "type": "function"
    },
    {
      "inputs": [
        {
          "internalType": "address",
          "name": "to",
          "type": "address"
        },
        {
          "internalType": "uint256",
          "name": "amount",
          "type": "uint256"
        }
      ],
      "name": "mint",
      "outputs": [],
      "stateMutability": "nonpayable",
      "type": "function"
    }
  ],
  "bytecode": "0x60806040523480156200001157600080fd5b506040518060400160405280600b81526020017f426f6e757320546f6b656e0000000000000000000000000000000000000000008152506040518060400160405280600381526020017f42544b0000000000000000000000000000000000000000000000000000000000815250816003908051906020019062000096929190620000f9565b508060049080519060200190620000af929190620000f9565b50505033600560006101000a81548173ffffffffffffffffffffffffffffffffffffffff021916908373ffffffffffffffffffffffffffffffffffffffff1602179055506200020e565b8280546200010790620001a9565b90600052602060002090601f0160209004810192826200012b576000855562000177565b82601f106200014657805160ff191683800117855562000177565b8280016001018555821562000177579182015b828111156200017657825182559160200191906001019062000159565b5b5090506200018691906200018a565b5090565b5b80821115620001a55760008160009055506001016200018b565b5090565b60006002820490506001821680620001c257607f821691505b60208210811415620001d957620001d8620001df565b5b50919050565b7f4e487b7100000000000000000000000000000000000000000000000000000000600052602260045260246000fd5b611869806200021e6000396000f3fe608060405234801561001057600080fd5b50600436106100f55760003560e01c80634046ebae11610097578063a457c2d711610066578063a457c2d714610288578063a9059cbb146102b8578063dd62ed3e146102e8578063f851a44014610318576100f5565b80634046ebae1461020057806340c10f191461021e57806370a082311461023a57806395d89b411461026a576100f5565b806318160ddd116100d357806318160ddd1461016457806323b872dd14610182578063313ce567146101b257806339509351146101d0576100f5565b806301c76f81146100fa57806306fdde0314610116578063095ea7b314610134575b600080fd5b610114600480360381019061010f9190610fad565b610336565b005b61011e61040a565b60405161012b91906114d2565b60405180910390f35b61014e60048036038101906101499190611061565b61049c565b60405161015b91906114b7565b60405180910390f35b61016c6104ba565b6040516101799190611634565b60405180910390f35b61019c60048036038101906101979190611012565b6104c4565b6040516101a991906114b7565b60405180910390f35b6101ba6105bc565b6040516101c7919061164f565b60405180910390f35b6101ea60048036038101906101e59190611061565b6105c5565b6040516101f791906114b7565b60405180910390f35b610208610671565b604051610215919061149c565b60405180910390f35b61023860048036038101906102339190611061565b610697565b005b610254600480360381019061024f9190610fad565b610735565b6040516102619190611634565b60405180910390f35b61027261077d565b60405161027f91906114d2565b60405180910390f35b6102a2600480360381019061029d9190611061565b61080f565b6040516102af91906114b7565b60405180910390f35b6102d260048036038101906102cd9190611061565b6108fa565b6040516102df91906114b7565b60405180910390f35b61030260048036038101906102fd9190610fd6565b610918565b60405161030f9190611634565b60405180910390f35b61032061099f565b60405161032d919061149c565b60405180910390f35b600560009054906101000a900473ffffffffffffffffffffffffffffffffffffffff1673ffffffffffffffffffffffffffffffffffffffff163373ffffffffffffffffffffffffffffffffffffffff16146103c6576040517f08c379a00000000000000000000000000000000000000000000000000000000081526004016103bd90611574565b60405180910390fd5b80600660006101000a81548173ffffffffffffffffffffffffffffffffffffffff021916908373ffffffffffffffffffffffffffffffffffffffff16021790555050565b60606003805461041990611764565b80601f016020809104026020016040519081016040528092919081815260200182805461044590611764565b80156104925780601f1061046757610100808354040283529160200191610492565b820191906000526020600020905b81548152906001019060200180831161047557829003601f168201915b5050505050905090565b60006104b06104a96109c5565b84846109cd565b6001905092915050565b6000600254905090565b60006104d1848484610b98565b6000600160008673ffffffffffffffffffffffffffffffffffffffff1673ffffffffffffffffffffffffffffffffffffffff168152602001908152602001600020600061051c6109c5565b73ffffffffffffffffffffffffffffffffffffffff1673ffffffffffffffffffffffffffffffffffffffff1681526020019081526020016000205490508281101561059c576040517f08c379a000000000000000000000000000000000000000000000000000000000815260040161059390611594565b60405180910390fd5b6105b0856105a86109c5565b8584036109cd565b60019150509392505050565b60006012905090565b60006106676105d26109c5565b8484600160006105e06109c5565b73ffffffffffffffffffffffffffffffffffffffff1673ffffffffffffffffffffffffffffffffffffffff16815260200190815260200160002060008873ffffffffffffffffffffffffffffffffffffffff1673ffffffffffffffffffffffffffffffffffffffff168152602001908152602001600020546106629190611686565b6109cd565b6001905092915050565b600660009054906101000a900473ffffffffffffffffffffffffffffffffffffffff1681565b600660009054906101000a900473ffffffffffffffffffffffffffffffffffffffff1673ffffffffffffffffffffffffffffffffffffffff163373ffffffffffffffffffffffffffffffffffffffff1614610727576040517f08c379a000000000000000000000000000000000000000000000000000000000815260040161071e90611534565b60405180910390fd5b6107318282610e19565b5050565b60008060008373ffffffffffffffffffffffffffffffffffffffff1673ffffffffffffffffffffffffffffffffffffffff168152602001908152602001600020549050919050565b60606004805461078c90611764565b80601f01602080910402602001604051908101604052809291908181526020018280546107b890611764565b80156108055780601f106107da57610100808354040283529160200191610805565b820191906000526020600020905b8154815290600101906020018083116107e857829003601f168201915b5050505050905090565b6000806001600061081e6109c5565b73ffffffffffffffffffffffffffffffffffffffff1673ffffffffffffffffffffffffffffffffffffffff16815260200190815260200160002060008573ffffffffffffffffffffffffffffffffffffffff1673ffffffffffffffffffffffffffffffffffffffff168152602001908152602001600020549050828110156108db576040517f08c379a00000000000000000000000000000000000000000000000000000000081526004016108d2906115f4565b60405180910390fd5b6108ef6108e66109c5565b858584036109cd565b600191505092915050565b600061090e6109076109c5565b8484610b98565b6001905092915050565b6000600160008473ffffffffffffffffffffffffffffffffffffffff1673ffffffffffffffffffffffffffffffffffffffff16815260200190815260200160002060008373ffffffffffffffffffffffffffffffffffffffff1673ffffffffffffffffffffffffffffffffffffffff16815260200190815260200160002054905092915050565b600560009054906101000a900473ffffffffffffffffffffffffffffffffffffffff1681565b600033905090565b600073ffffffffffffffffffffffffffffffffffffffff168373ffffffffffffffffffffffffffffffffffffffff161415610a3d576040517f08c379a0000000000000000000000000000000000000000000000000000000008152600401610a34906115d4565b60405180910390fd5b600073ffffffffffffffffffffffffffffffffffffffff168273ffffffffffffffffffffffffffffffffffffffff161415610aad576040517f08c379a0000000000000000000000000000000000000000000000000000000008152600401610aa490611514565b60405180910390fd5b80600160008573ffffffffffffffffffffffffffffffffffffffff1673ffffffffffffffffffffffffffffffffffffffff16815260200190815260200160002060008473ffffffffffffffffffffffffffffffffffffffff1673ffffffffffffffffffffffffffffffffffffffff168152602001908152602001600020819055508173ffffffffffffffffffffffffffffffffffffffff168373ffffffffffffffffffffffffffffffffffffffff167f8c5be1e5ebec7d5bd14f71427d1e84f3dd0314c0f7b2291e5b200ac8c7c3b92583604051610b8b9190611634565b60405180910390a3505050565b600073ffffffffffffffffffffffffffffffffffffffff168373ffffffffffffffffffffffffffffffffffffffff161415610c08576040517f08c379a0000000000000000000000000000000000000000000000000000000008152600401610bff906115b4565b60405180910390fd5b600073ffffffffffffffffffffffffffffffffffffffff168273ffffffffffffffffffffffffffffffffffffffff161415610c78576040517f08c379a0000000000000000000000000000000000000000000000000000000008152600401610c6f906114f4565b60405180910390fd5b610c83838383610f79565b60008060008573ffffffffffffffffffffffffffffffffffffffff1673ffffffffffffffffffffffffffffffffffffffff16815260200190815260200160002054905081811015610d09576040517f08c379a0000000000000000000000000000000000000000000000000000000008152600401610d0090611554565b60405180910390fd5b8181036000808673ffffffffffffffffffffffffffffffffffffffff1673ffffffffffffffffffffffffffffffffffffffff16815260200190815260200160002081905550816000808573ffffffffffffffffffffffffffffffffffffffff1673ffffffffffffffffffffffffffffffffffffffff1681526020019081526020016000206000828254610d9c9190611686565b925050819055508273ffffffffffffffffffffffffffffffffffffffff168473ffffffffffffffffffffffffffffffffffffffff167fddf252ad1be2c89b69c2b068fc378daa952ba7f163c4a11628f55a4df523b3ef84604051610e009190611634565b60405180910390a3610e13848484610f7e565b50505050565b600073ffffffffffffffffffffffffffffffffffffffff168273ffffffffffffffffffffffffffffffffffffffff161415610e89576040517f08c379a0000000000000000000000000000000000000000000000000000000008152600401610e8090611614565b60405180910390fd5b610e9560008383610f79565b8060026000828254610ea79190611686565b92505081905550806000808473ffffffffffffffffffffffffffffffffffffffff1673ffffffffffffffffffffffffffffffffffffffff1681526020019081526020016000206000828254610efc9190611686565b925050819055508173ffffffffffffffffffffffffffffffffffffffff16600073ffffffffffffffffffffffffffffffffffffffff167fddf252ad1be2c89b69c2b068fc378daa952ba7f163c4a11628f55a4df523b3ef83604051610f619190611634565b60405180910390a3610f7560008383610f7e565b5050565b505050565b505050565b600081359050610f9281611805565b92915050565b600081359050610fa78161181c565b92915050565b600060208284031215610fbf57600080fd5b6000610fcd84828501610f83565b91505092915050565b60008060408385031215610fe957600080fd5b6000610ff785828601610f83565b925050602061100885828601610f83565b9150509250929050565b60008060006060848603121561102757600080fd5b600061103586828701610f83565b935050602061104686828701610f83565b925050604061105786828701610f98565b9150509250925092565b6000806040838503121561107457600080fd5b600061108285828601610f83565b925050602061109385828601610f98565b9150509250929050565b6110a6816116dc565b82525050565b6110b5816116ee565b82525050565b60006110c68261166a565b6110d08185611675565b93506110e0818560208601611731565b6110e9816117f4565b840191505092915050565b6000611101602383611675565b91507f45524332303a207472616e7366657220746f20746865207a65726f206164647260008301527f65737300000000000000000000000000000000000000000000000000000000006020830152604082019050919050565b6000611167602283611675565b91507f45524332303a20617070726f766520746f20746865207a65726f20616464726560008301527f73730000000000000000000000000000000000000000000000000000000000006020830152604082019050919050565b60006111cd600f83611675565b91507f6f6e6c79206c697175696461746f7200000000000000000000000000000000006000830152602082019050919050565b600061120d602683611675565b91507f45524332303a207472616e7366657220616d6f756e742065786365656473206260008301527f616c616e636500000000000000000000000000000000000000000000000000006020830152604082019050919050565b6000611273600a83611675565b91507f6f6e6c792061646d696e000000000000000000000000000000000000000000006000830152602082019050919050565b60006112b3602883611675565b91507f45524332303a207472616e7366657220616d6f756e742065786365656473206160008301527f6c6c6f77616e63650000000000000000000000000000000000000000000000006020830152604082019050919050565b6000611319602583611675565b91507f45524332303a207472616e736665722066726f6d20746865207a65726f20616460008301527f64726573730000000000000000000000000000000000000000000000000000006020830152604082019050919050565b600061137f602483611675565b91507f45524332303a20617070726f76652066726f6d20746865207a65726f2061646460008301527f72657373000000000000000000000000000000000000000000000000000000006020830152604082019050919050565b60006113e5602583611675565b91507f45524332303a2064656372656173656420616c6c6f77616e63652062656c6f7760008301527f207a65726f0000000000000000000000000000000000000000000000000000006020830152604082019050919050565b600061144b601f83611675565b91507f45524332303a206d696e7420746f20746865207a65726f2061646472657373006000830152602082019050919050565b6114878161171a565b82525050565b61149681611724565b82525050565b60006020820190506114b1600083018461109d565b92915050565b60006020820190506114cc60008301846110ac565b92915050565b600060208201905081810360008301526114ec81846110bb565b905092915050565b6000602082019050818103600083015261150d816110f4565b9050919050565b6000602082019050818103600083015261152d8161115a565b9050919050565b6000602082019050818103600083015261154d816111c0565b9050919050565b6000602082019050818103600083015261156d81611200565b9050919050565b6000602082019050818103600083015261158d81611266565b9050919050565b600060208201905081810360008301526115ad816112a6565b9050919050565b600060208201905081810360008301526115cd8161130c565b9050919050565b600060208201905081810360008301526115ed81611372565b9050919050565b6000602082019050818103600083015261160d816113d8565b9050919050565b6000602082019050818103600083015261162d8161143e565b9050919050565b6000602082019050611649600083018461147e565b92915050565b6000602082019050611664600083018461148d565b92915050565b600081519050919050565b600082825260208201905092915050565b60006116918261171a565b915061169c8361171a565b9250827fffffffffffffffffffffffffffffffffffffffffffffffffffffffffffffffff038211156116d1576116d0611796565b5b828201905092915050565b60006116e7826116fa565b9050919050565b60008115159050919050565b600073ffffffffffffffffffffffffffffffffffffffff82169050919050565b6000819050919050565b600060ff82169050919050565b60005b8381101561174f578082015181840152602081019050611734565b8381111561175e576000848401525b50505050565b6000600282049050600182168061177c57607f821691505b602082108114156117905761178f6117c5565b5b50919050565b7f4e487b7100000000000000000000000000000000000000000000000000000000600052601160045260246000fd5b7f4e487b7100000000000000000000000000000000000000000000000000000000600052602260045260246000fd5b6000601f19601f8301169050919050565b61180e816116dc565b811461181957600080fd5b50565b6118258161171a565b811461183057600080fd5b5056fea2646970667358221220d6485eb5b9729dcf4c08cd7e8c6288c7a03cc928a404d9b842e2552a4abb98b164736f6c63430008000033",
  "immutableReferences": {},
  "source": "pragma solidity ^0.8.0;\nimport '@openzeppelin/contracts/token/ERC20/ERC20.sol';\n\ncontract BonusToken is ERC20{\n    address public admin;\n    address public liquidator; \n    constructor() ERC20('Bonus Token','BTK') public{\n        admin = msg.sender;\n    }\n    function setLiquidator (address _liquidator) external{\n        require(msg.sender== admin, 'only admin');\n        liquidator = _liquidator;\n    }\n    function mint(address to, uint amount)external{\n        require(msg.sender == liquidator, 'only liquidator');\n        _mint(to,amount);\n        \n\n    }\n\n}\n",
  "sourcePath": "/Users/tharoonbalaji/migrator/contracts/BonusToken.sol",
  "compiler": {
    "name": "solc",
    "version": "0.8.0+commit.c7dfd78e.Emscripten.clang"
  },
  "schemaVersion": "3.4.3",
  "updatedAt": "2021-11-30T00:30:10.785Z",
  "devdoc": {
    "kind": "dev",
    "methods": {
      "allowance(address,address)": {
        "details": "See {IERC20-allowance}."
      },
      "approve(address,uint256)": {
        "details": "See {IERC20-approve}. Requirements: - `spender` cannot be the zero address."
      },
      "balanceOf(address)": {
        "details": "See {IERC20-balanceOf}."
      },
      "decimals()": {
        "details": "Returns the number of decimals used to get its user representation. For example, if `decimals` equals `2`, a balance of `505` tokens should be displayed to a user as `5.05` (`505 / 10 ** 2`). Tokens usually opt for a value of 18, imitating the relationship between Ether and Wei. This is the value {ERC20} uses, unless this function is overridden; NOTE: This information is only used for _display_ purposes: it in no way affects any of the arithmetic of the contract, including {IERC20-balanceOf} and {IERC20-transfer}."
      },
      "decreaseAllowance(address,uint256)": {
        "details": "Atomically decreases the allowance granted to `spender` by the caller. This is an alternative to {approve} that can be used as a mitigation for problems described in {IERC20-approve}. Emits an {Approval} event indicating the updated allowance. Requirements: - `spender` cannot be the zero address. - `spender` must have allowance for the caller of at least `subtractedValue`."
      },
      "increaseAllowance(address,uint256)": {
        "details": "Atomically increases the allowance granted to `spender` by the caller. This is an alternative to {approve} that can be used as a mitigation for problems described in {IERC20-approve}. Emits an {Approval} event indicating the updated allowance. Requirements: - `spender` cannot be the zero address."
      },
      "name()": {
        "details": "Returns the name of the token."
      },
      "symbol()": {
        "details": "Returns the symbol of the token, usually a shorter version of the name."
      },
      "totalSupply()": {
        "details": "See {IERC20-totalSupply}."
      },
      "transfer(address,uint256)": {
        "details": "See {IERC20-transfer}. Requirements: - `recipient` cannot be the zero address. - the caller must have a balance of at least `amount`."
      },
      "transferFrom(address,address,uint256)": {
        "details": "See {IERC20-transferFrom}. Emits an {Approval} event indicating the updated allowance. This is not required by the EIP. See the note at the beginning of {ERC20}. Requirements: - `sender` and `recipient` cannot be the zero address. - `sender` must have a balance of at least `amount`. - the caller must have allowance for ``sender``'s tokens of at least `amount`."
      }
    },
    "version": 1
  },
  "userdoc": {
    "kind": "user",
    "methods": {},
    "version": 1
  }
}